{
  "contractName": "CouncilProjectFunding",
  "abi": [
    {
      "inputs": [],
      "name": "projectCount",
      "outputs": [
        {
          "internalType": "uint256",
          "name": "",
          "type": "uint256"
        }
      ],
      "stateMutability": "view",
      "type": "function",
      "constant": true
    },
    {
      "inputs": [
        {
          "internalType": "uint256",
          "name": "",
          "type": "uint256"
        }
      ],
      "name": "projects",
      "outputs": [
        {
          "internalType": "uint256",
          "name": "id",
          "type": "uint256"
        },
        {
          "internalType": "string",
          "name": "name",
          "type": "string"
        },
        {
          "internalType": "string",
          "name": "description",
          "type": "string"
        },
        {
          "internalType": "uint256",
          "name": "fundingNeeded",
          "type": "uint256"
        },
        {
          "internalType": "uint256",
          "name": "currentFundLevel",
          "type": "uint256"
        },
        {
          "internalType": "uint256",
          "name": "thresholdBlock",
          "type": "uint256"
        }
      ],
      "stateMutability": "view",
      "type": "function",
      "constant": true
    },
    {
      "inputs": [
        {
          "internalType": "string",
          "name": "name",
          "type": "string"
        },
        {
          "internalType": "string",
          "name": "description",
          "type": "string"
        },
        {
          "internalType": "uint256",
          "name": "fundingNeeded",
          "type": "uint256"
        },
        {
          "internalType": "uint256",
          "name": "thresholdBlock",
          "type": "uint256"
        }
      ],
      "name": "addProject",
      "outputs": [
        {
          "internalType": "bool",
          "name": "success",
          "type": "bool"
        }
      ],
      "stateMutability": "nonpayable",
      "type": "function"
    },
    {
      "inputs": [
        {
          "internalType": "uint256",
          "name": "projectId",
          "type": "uint256"
        }
      ],
      "name": "fundProject",
      "outputs": [
        {
          "internalType": "bool",
          "name": "success",
          "type": "bool"
        }
      ],
      "stateMutability": "payable",
      "type": "function",
      "payable": true
    },
    {
      "inputs": [
        {
          "internalType": "uint256",
          "name": "projectId",
          "type": "uint256"
        }
      ],
      "name": "deployProjectFunds",
      "outputs": [
        {
          "internalType": "bool",
          "name": "success",
          "type": "bool"
        }
      ],
      "stateMutability": "nonpayable",
      "type": "function"
    },
    {
      "inputs": [
        {
          "internalType": "uint256",
          "name": "projectId",
          "type": "uint256"
        }
      ],
      "name": "canDeployFunds",
      "outputs": [
        {
          "internalType": "bool",
          "name": "canDeploy",
          "type": "bool"
        }
      ],
      "stateMutability": "nonpayable",
      "type": "function"
    },
    {
      "inputs": [
        {
          "internalType": "uint256",
          "name": "projectId",
          "type": "uint256"
        }
      ],
      "name": "retrieveUnusedFunds",
      "outputs": [
        {
          "internalType": "bool",
          "name": "success",
          "type": "bool"
        }
      ],
      "stateMutability": "nonpayable",
      "type": "function"
    }
  ],
  "bytecode": "0x608060405234801561001057600080fd5b50610b04806100206000396000f3fe6080604052600436106100705760003560e01c806322e4ff611161004e57806322e4ff611461013157806336fbad261461016e5780634a031e12146101995780636c563abe146101d657610070565b806302f0889a14610075578063107046bd146100b25780632160036a146100f4575b600080fd5b34801561008157600080fd5b5061009c6004803603810190610097919061066c565b610206565b6040516100a991906106b4565b60405180910390f35b3480156100be57600080fd5b506100d960048036038101906100d4919061066c565b61020d565b6040516100eb96959493929190610777565b60405180910390f35b34801561010057600080fd5b5061011b6004803603810190610116919061084b565b610359565b60405161012891906106b4565b60405180910390f35b34801561013d57600080fd5b506101586004803603810190610153919061066c565b6104fa565b60405161016591906106b4565b60405180910390f35b34801561017a57600080fd5b50610183610501565b60405161019091906108f2565b60405180910390f35b3480156101a557600080fd5b506101c060048036038101906101bb919061066c565b610507565b6040516101cd91906106b4565b60405180910390f35b6101f060048036038101906101eb919061066c565b61050e565b6040516101fd91906106b4565b60405180910390f35b6000919050565b60006020528060005260406000206000915090508060000154908060010180546102369061093c565b80601f01602080910402602001604051908101604052809291908181526020018280546102629061093c565b80156102af5780601f10610284576101008083540402835291602001916102af565b820191906000526020600020905b81548152906001019060200180831161029257829003601f168201915b5050505050908060020180546102c49061093c565b80601f01602080910402602001604051908101604052809291908181526020018280546102f09061093c565b801561033d5780601f106103125761010080835404028352916020019161033d565b820191906000526020600020905b81548152906001019060200180831161032057829003601f168201915b5050505050908060030154908060040154908060050154905086565b60008686600082829050141561036e57600080fd5b8686600082829050141561038157600080fd5b866000811161038f57600080fd5b866000811161039d57600080fd5b6040518060c0016040528060015481526020018e8e8080601f016020809104026020016040519081016040528093929190818152602001838380828437600081840152601f19601f8201169050808301925050505050505081526020018c8c8080601f016020809104026020016040519081016040528093929190818152602001838380828437600081840152601f19601f8201169050808301925050505050505081526020018a81526020016000815260200189815250600080600154815260200190815260200160002060008201518160000155602082015181600101908051906020019061048f929190610589565b5060408201518160020190805190602001906104ac929190610589565b50606082015181600301556080820151816004015560a08201518160050155905050600160008154809291906104e19061099d565b9190505550600196505050505050509695505050505050565b6000919050565b60015481565b6000919050565b60006001548210610554576040517f08c379a000000000000000000000000000000000000000000000000000000000815260040161054b90610a58565b60405180910390fd5b3460008084815260200190815260200160002060040160008282546105799190610a78565b9250508190555060019050919050565b8280546105959061093c565b90600052602060002090601f0160209004810192826105b757600085556105fe565b82601f106105d057805160ff19168380011785556105fe565b828001600101855582156105fe579182015b828111156105fd5782518255916020019190600101906105e2565b5b50905061060b919061060f565b5090565b5b80821115610628576000816000905550600101610610565b5090565b600080fd5b600080fd5b6000819050919050565b61064981610636565b811461065457600080fd5b50565b60008135905061066681610640565b92915050565b6000602082840312156106825761068161062c565b5b600061069084828501610657565b91505092915050565b60008115159050919050565b6106ae81610699565b82525050565b60006020820190506106c960008301846106a5565b92915050565b6106d881610636565b82525050565b600081519050919050565b600082825260208201905092915050565b60005b838110156107185780820151818401526020810190506106fd565b83811115610727576000848401525b50505050565b6000601f19601f8301169050919050565b6000610749826106de565b61075381856106e9565b93506107638185602086016106fa565b61076c8161072d565b840191505092915050565b600060c08201905061078c60008301896106cf565b818103602083015261079e818861073e565b905081810360408301526107b2818761073e565b90506107c160608301866106cf565b6107ce60808301856106cf565b6107db60a08301846106cf565b979650505050505050565b600080fd5b600080fd5b600080fd5b60008083601f84011261080b5761080a6107e6565b5b8235905067ffffffffffffffff811115610828576108276107eb565b5b602083019150836001820283011115610844576108436107f0565b5b9250929050565b600080600080600080608087890312156108685761086761062c565b5b600087013567ffffffffffffffff81111561088657610885610631565b5b61089289828a016107f5565b9650965050602087013567ffffffffffffffff8111156108b5576108b4610631565b5b6108c189828a016107f5565b945094505060406108d489828a01610657565b92505060606108e589828a01610657565b9150509295509295509295565b600060208201905061090760008301846106cf565b92915050565b7f4e487b7100000000000000000000000000000000000000000000000000000000600052602260045260246000fd5b6000600282049050600182168061095457607f821691505b602082108114156109685761096761090d565b5b50919050565b7f4e487b7100000000000000000000000000000000000000000000000000000000600052601160045260246000fd5b60006109a882610636565b91507fffffffffffffffffffffffffffffffffffffffffffffffffffffffffffffffff8214156109db576109da61096e565b5b600182019050919050565b7f54686520737570706c6965642070726f6a65637420686173206e6f742062656560008201527f6e20637265617465640000000000000000000000000000000000000000000000602082015250565b6000610a426029836106e9565b9150610a4d826109e6565b604082019050919050565b60006020820190508181036000830152610a7181610a35565b9050919050565b6000610a8382610636565b9150610a8e83610636565b9250827fffffffffffffffffffffffffffffffffffffffffffffffffffffffffffffffff03821115610ac357610ac261096e565b5b82820190509291505056fea2646970667358221220841df6fc7a9d38bcf6f5656873e2ab7c396cbf976fef5e25fda8fca44c530abb64736f6c63430008090033",
  "immutableReferences": {},
  "source": "// SPDX-License-Identifier: MIT\r\npragma solidity 0.8.9;\r\n\r\ncontract CouncilProjectFunding {\r\n  \r\n  mapping(uint => Project) public projects;\r\n  uint public projectCount;\r\n\r\n  struct Project {\r\n    uint id;\r\n    string name;\r\n    string description;\r\n    uint fundingNeeded;\r\n    uint currentFundLevel;\r\n    uint thresholdBlock;\r\n  }\r\n\r\n  modifier stringNotEmpty(string calldata str) {\r\n    require(bytes(str).length != 0);\r\n    _;\r\n  }\r\n\r\n  modifier uintGreaterThanZero(uint num) {\r\n    require(num > 0);\r\n    _;\r\n  }\r\n\r\n  function addProject(\r\n    string calldata name,\r\n    string calldata description,\r\n    uint fundingNeeded,\r\n    uint thresholdBlock\r\n  ) public \r\n    stringNotEmpty(name) \r\n    stringNotEmpty(description) \r\n    uintGreaterThanZero(fundingNeeded)\r\n    uintGreaterThanZero(thresholdBlock) \r\n    returns (bool success) \r\n  {\r\n    projects[projectCount] = Project(\r\n      projectCount,\r\n      name,\r\n      description,\r\n      fundingNeeded,\r\n      0,\r\n      thresholdBlock\r\n    );\r\n    projectCount++;\r\n    return true;\r\n  }\r\n\r\n  function fundProject(uint projectId) public payable returns (bool success) {\r\n    require(projectId < projectCount, \"The supplied project has not been created\");\r\n\r\n    projects[projectId].currentFundLevel += msg.value;\r\n\r\n    return true;\r\n  }\r\n\r\n  function deployProjectFunds(uint projectId) public returns (bool success) {\r\n\r\n  }\r\n\r\n  function canDeployFunds(uint projectId) public returns (bool canDeploy) {\r\n\r\n  }\r\n\r\n  function retrieveUnusedFunds(uint projectId) public returns (bool success) {\r\n\r\n  }\r\n}\r\n",
  "sourcePath": "D:\\dev\\blockchain-developer-bootcamp-final-project\\contracts\\CouncilProjectFunding.sol",
  "compiler": {
    "name": "solc",
    "version": "0.8.9+commit.e5eed63a.Emscripten.clang"
  },
  "schemaVersion": "3.4.3",
  "updatedAt": "2021-11-20T12:22:08.603Z",
  "networkType": "ethereum",
  "devdoc": {
    "kind": "dev",
    "methods": {},
    "version": 1
  },
  "userdoc": {
    "kind": "user",
    "methods": {},
    "version": 1
  }
}