{
  "contractName": "CouncilProjectFunding",
  "abi": [
    {
      "inputs": [],
      "name": "projectCount",
      "outputs": [
        {
          "internalType": "uint256",
          "name": "",
          "type": "uint256"
        }
      ],
      "stateMutability": "view",
      "type": "function",
      "constant": true
    },
    {
      "inputs": [
        {
          "internalType": "uint256",
          "name": "",
          "type": "uint256"
        }
      ],
      "name": "projects",
      "outputs": [
        {
          "internalType": "uint256",
          "name": "id",
          "type": "uint256"
        },
        {
          "internalType": "string",
          "name": "name",
          "type": "string"
        },
        {
          "internalType": "string",
          "name": "description",
          "type": "string"
        },
        {
          "internalType": "uint256",
          "name": "fundingNeeded",
          "type": "uint256"
        },
        {
          "internalType": "uint256",
          "name": "currentFundLevel",
          "type": "uint256"
        },
        {
          "internalType": "uint256",
          "name": "thresholdBlock",
          "type": "uint256"
        }
      ],
      "stateMutability": "view",
      "type": "function",
      "constant": true
    },
    {
      "inputs": [
        {
          "internalType": "string",
          "name": "name",
          "type": "string"
        },
        {
          "internalType": "string",
          "name": "description",
          "type": "string"
        },
        {
          "internalType": "uint256",
          "name": "fundingNeeded",
          "type": "uint256"
        },
        {
          "internalType": "uint256",
          "name": "thresholdBlock",
          "type": "uint256"
        }
      ],
      "name": "addProject",
      "outputs": [
        {
          "internalType": "bool",
          "name": "success",
          "type": "bool"
        }
      ],
      "stateMutability": "nonpayable",
      "type": "function"
    },
    {
      "inputs": [
        {
          "internalType": "uint256",
          "name": "projectId",
          "type": "uint256"
        }
      ],
      "name": "fundProject",
      "outputs": [
        {
          "internalType": "bool",
          "name": "success",
          "type": "bool"
        }
      ],
      "stateMutability": "payable",
      "type": "function",
      "payable": true
    },
    {
      "inputs": [
        {
          "internalType": "uint256",
          "name": "projectId",
          "type": "uint256"
        }
      ],
      "name": "deployProjectFunds",
      "outputs": [
        {
          "internalType": "bool",
          "name": "success",
          "type": "bool"
        }
      ],
      "stateMutability": "nonpayable",
      "type": "function"
    },
    {
      "inputs": [
        {
          "internalType": "uint256",
          "name": "projectId",
          "type": "uint256"
        }
      ],
      "name": "canDeployFunds",
      "outputs": [
        {
          "internalType": "bool",
          "name": "canDeploy",
          "type": "bool"
        }
      ],
      "stateMutability": "nonpayable",
      "type": "function"
    },
    {
      "inputs": [
        {
          "internalType": "uint256",
          "name": "projectId",
          "type": "uint256"
        }
      ],
      "name": "retrieveUnusedFunds",
      "outputs": [
        {
          "internalType": "bool",
          "name": "success",
          "type": "bool"
        }
      ],
      "stateMutability": "nonpayable",
      "type": "function"
    }
  ],
  "bytecode": "0x608060405234801561001057600080fd5b506109a8806100206000396000f3fe6080604052600436106100705760003560e01c806322e4ff611161004e57806322e4ff611461013157806336fbad261461016e5780634a031e12146101995780636c563abe146101d657610070565b806302f0889a14610075578063107046bd146100b25780632160036a146100f4575b600080fd5b34801561008157600080fd5b5061009c600480360381019061009791906105f8565b610206565b6040516100a99190610640565b60405180910390f35b3480156100be57600080fd5b506100d960048036038101906100d491906105f8565b61020d565b6040516100eb96959493929190610703565b60405180910390f35b34801561010057600080fd5b5061011b600480360381019061011691906107d7565b610359565b6040516101289190610640565b60405180910390f35b34801561013d57600080fd5b50610158600480360381019061015391906105f8565b6104fa565b6040516101659190610640565b60405180910390f35b34801561017a57600080fd5b50610183610501565b604051610190919061087e565b60405180910390f35b3480156101a557600080fd5b506101c060048036038101906101bb91906105f8565b610507565b6040516101cd9190610640565b60405180910390f35b6101f060048036038101906101eb91906105f8565b61050e565b6040516101fd9190610640565b60405180910390f35b6000919050565b6000602052806000526040600020600091509050806000015490806001018054610236906108c8565b80601f0160208091040260200160405190810160405280929190818152602001828054610262906108c8565b80156102af5780601f10610284576101008083540402835291602001916102af565b820191906000526020600020905b81548152906001019060200180831161029257829003601f168201915b5050505050908060020180546102c4906108c8565b80601f01602080910402602001604051908101604052809291908181526020018280546102f0906108c8565b801561033d5780601f106103125761010080835404028352916020019161033d565b820191906000526020600020905b81548152906001019060200180831161032057829003601f168201915b5050505050908060030154908060040154908060050154905086565b60008686600082829050141561036e57600080fd5b8686600082829050141561038157600080fd5b866000811161038f57600080fd5b866000811161039d57600080fd5b6040518060c0016040528060015481526020018e8e8080601f016020809104026020016040519081016040528093929190818152602001838380828437600081840152601f19601f8201169050808301925050505050505081526020018c8c8080601f016020809104026020016040519081016040528093929190818152602001838380828437600081840152601f19601f8201169050808301925050505050505081526020018a81526020016000815260200189815250600080600154815260200190815260200160002060008201518160000155602082015181600101908051906020019061048f929190610515565b5060408201518160020190805190602001906104ac929190610515565b50606082015181600301556080820151816004015560a08201518160050155905050600160008154809291906104e190610929565b9190505550600196505050505050509695505050505050565b6000919050565b60015481565b6000919050565b6000919050565b828054610521906108c8565b90600052602060002090601f016020900481019282610543576000855561058a565b82601f1061055c57805160ff191683800117855561058a565b8280016001018555821561058a579182015b8281111561058957825182559160200191906001019061056e565b5b509050610597919061059b565b5090565b5b808211156105b457600081600090555060010161059c565b5090565b600080fd5b600080fd5b6000819050919050565b6105d5816105c2565b81146105e057600080fd5b50565b6000813590506105f2816105cc565b92915050565b60006020828403121561060e5761060d6105b8565b5b600061061c848285016105e3565b91505092915050565b60008115159050919050565b61063a81610625565b82525050565b60006020820190506106556000830184610631565b92915050565b610664816105c2565b82525050565b600081519050919050565b600082825260208201905092915050565b60005b838110156106a4578082015181840152602081019050610689565b838111156106b3576000848401525b50505050565b6000601f19601f8301169050919050565b60006106d58261066a565b6106df8185610675565b93506106ef818560208601610686565b6106f8816106b9565b840191505092915050565b600060c082019050610718600083018961065b565b818103602083015261072a81886106ca565b9050818103604083015261073e81876106ca565b905061074d606083018661065b565b61075a608083018561065b565b61076760a083018461065b565b979650505050505050565b600080fd5b600080fd5b600080fd5b60008083601f84011261079757610796610772565b5b8235905067ffffffffffffffff8111156107b4576107b3610777565b5b6020830191508360018202830111156107d0576107cf61077c565b5b9250929050565b600080600080600080608087890312156107f4576107f36105b8565b5b600087013567ffffffffffffffff811115610812576108116105bd565b5b61081e89828a01610781565b9650965050602087013567ffffffffffffffff811115610841576108406105bd565b5b61084d89828a01610781565b9450945050604061086089828a016105e3565b925050606061087189828a016105e3565b9150509295509295509295565b6000602082019050610893600083018461065b565b92915050565b7f4e487b7100000000000000000000000000000000000000000000000000000000600052602260045260246000fd5b600060028204905060018216806108e057607f821691505b602082108114156108f4576108f3610899565b5b50919050565b7f4e487b7100000000000000000000000000000000000000000000000000000000600052601160045260246000fd5b6000610934826105c2565b91507fffffffffffffffffffffffffffffffffffffffffffffffffffffffffffffffff821415610967576109666108fa565b5b60018201905091905056fea26469706673582212209d4cac3563e9633c5b683e714a7cb14774f8ec70ee51fd0b4625218a4098005564736f6c63430008090033",
  "immutableReferences": {},
  "source": "// SPDX-License-Identifier: MIT\r\npragma solidity 0.8.9;\r\n\r\ncontract CouncilProjectFunding {\r\n  \r\n  mapping(uint => Project) public projects;\r\n  uint public projectCount;\r\n\r\n  struct Project {\r\n    uint id;\r\n    string name;\r\n    string description;\r\n    uint fundingNeeded;\r\n    uint currentFundLevel;\r\n    uint thresholdBlock;\r\n  }\r\n\r\n  modifier stringNotEmpty(string calldata str) {\r\n    require(bytes(str).length != 0);\r\n    _;\r\n  }\r\n\r\n  modifier uintGreaterThanZero(uint num) {\r\n    require(num > 0);\r\n    _;\r\n  }\r\n\r\n  function addProject(\r\n    string calldata name,\r\n    string calldata description,\r\n    uint fundingNeeded,\r\n    uint thresholdBlock\r\n  ) public \r\n    stringNotEmpty(name) \r\n    stringNotEmpty(description) \r\n    uintGreaterThanZero(fundingNeeded)\r\n    uintGreaterThanZero(thresholdBlock) \r\n    returns (bool success) \r\n  {\r\n    projects[projectCount] = Project(\r\n      projectCount,\r\n      name,\r\n      description,\r\n      fundingNeeded,\r\n      0,\r\n      thresholdBlock\r\n    );\r\n    projectCount++;\r\n    return true;\r\n  }\r\n\r\n\r\n  function fundProject(uint projectId) public payable returns (bool success) {\r\n\r\n  }\r\n\r\n  function deployProjectFunds(uint projectId) public returns (bool success) {\r\n\r\n  }\r\n\r\n  function canDeployFunds(uint projectId) public returns (bool canDeploy) {\r\n\r\n  }\r\n\r\n  function retrieveUnusedFunds(uint projectId) public returns (bool success) {\r\n\r\n  }\r\n}\r\n",
  "sourcePath": "D:\\dev\\blockchain-developer-bootcamp-final-project\\contracts\\CouncilProjectFunding.sol",
  "compiler": {
    "name": "solc",
    "version": "0.8.9+commit.e5eed63a.Emscripten.clang"
  },
  "schemaVersion": "3.4.3",
  "updatedAt": "2021-11-17T21:59:50.247Z",
  "networkType": "ethereum",
  "devdoc": {
    "kind": "dev",
    "methods": {},
    "version": 1
  },
  "userdoc": {
    "kind": "user",
    "methods": {},
    "version": 1
  }
}