{
  "contractName": "CouncilProjectFunding",
  "abi": [
    {
      "anonymous": false,
      "inputs": [
        {
          "indexed": true,
          "internalType": "address",
          "name": "previousOwner",
          "type": "address"
        },
        {
          "indexed": true,
          "internalType": "address",
          "name": "newOwner",
          "type": "address"
        }
      ],
      "name": "OwnershipTransferred",
      "type": "event"
    },
    {
      "inputs": [],
      "name": "owner",
      "outputs": [
        {
          "internalType": "address",
          "name": "",
          "type": "address"
        }
      ],
      "stateMutability": "view",
      "type": "function"
    },
    {
      "inputs": [],
      "name": "projectCount",
      "outputs": [
        {
          "internalType": "uint256",
          "name": "",
          "type": "uint256"
        }
      ],
      "stateMutability": "view",
      "type": "function"
    },
    {
      "inputs": [
        {
          "internalType": "uint256",
          "name": "",
          "type": "uint256"
        }
      ],
      "name": "projects",
      "outputs": [
        {
          "internalType": "uint256",
          "name": "id",
          "type": "uint256"
        },
        {
          "internalType": "string",
          "name": "name",
          "type": "string"
        },
        {
          "internalType": "string",
          "name": "description",
          "type": "string"
        },
        {
          "internalType": "uint256",
          "name": "fundingNeeded",
          "type": "uint256"
        },
        {
          "internalType": "uint256",
          "name": "currentFundLevel",
          "type": "uint256"
        },
        {
          "internalType": "uint256",
          "name": "thresholdBlock",
          "type": "uint256"
        }
      ],
      "stateMutability": "view",
      "type": "function"
    },
    {
      "inputs": [],
      "name": "renounceOwnership",
      "outputs": [],
      "stateMutability": "nonpayable",
      "type": "function"
    },
    {
      "inputs": [
        {
          "internalType": "address",
          "name": "newOwner",
          "type": "address"
        }
      ],
      "name": "transferOwnership",
      "outputs": [],
      "stateMutability": "nonpayable",
      "type": "function"
    },
    {
      "inputs": [
        {
          "internalType": "string",
          "name": "name",
          "type": "string"
        },
        {
          "internalType": "string",
          "name": "description",
          "type": "string"
        },
        {
          "internalType": "uint256",
          "name": "fundingNeeded",
          "type": "uint256"
        },
        {
          "internalType": "uint256",
          "name": "thresholdBlock",
          "type": "uint256"
        }
      ],
      "name": "addProject",
      "outputs": [
        {
          "internalType": "bool",
          "name": "success",
          "type": "bool"
        }
      ],
      "stateMutability": "nonpayable",
      "type": "function"
    },
    {
      "inputs": [
        {
          "internalType": "uint256",
          "name": "projectId",
          "type": "uint256"
        }
      ],
      "name": "fundProject",
      "outputs": [
        {
          "internalType": "bool",
          "name": "success",
          "type": "bool"
        }
      ],
      "stateMutability": "payable",
      "type": "function"
    },
    {
      "inputs": [
        {
          "internalType": "uint256",
          "name": "projectId",
          "type": "uint256"
        }
      ],
      "name": "deployProjectFunds",
      "outputs": [
        {
          "internalType": "bool",
          "name": "success",
          "type": "bool"
        }
      ],
      "stateMutability": "nonpayable",
      "type": "function"
    },
    {
      "inputs": [
        {
          "internalType": "uint256",
          "name": "projectId",
          "type": "uint256"
        }
      ],
      "name": "withdrawUnusedFunds",
      "outputs": [
        {
          "internalType": "bool",
          "name": "success",
          "type": "bool"
        }
      ],
      "stateMutability": "nonpayable",
      "type": "function"
    }
  ],
  "bytecode": "0x608060405234801561001057600080fd5b5061002d61002261003260201b60201c565b61003a60201b60201c565b6100fe565b600033905090565b60008060009054906101000a900473ffffffffffffffffffffffffffffffffffffffff169050816000806101000a81548173ffffffffffffffffffffffffffffffffffffffff021916908373ffffffffffffffffffffffffffffffffffffffff1602179055508173ffffffffffffffffffffffffffffffffffffffff168173ffffffffffffffffffffffffffffffffffffffff167f8be0079c531659141344cd1fd0a4f28419497f9722a3daafe3b4186f6b6457e060405160405180910390a35050565b6110758061010d6000396000f3fe6080604052600436106100865760003560e01c806336fbad261161005957806336fbad26146101845780636c563abe146101af578063715018a6146101df5780638da5cb5b146101f6578063f2fde38b1461022157610086565b806308d4696e1461008b578063107046bd146100c85780632160036a1461010a57806322e4ff6114610147575b600080fd5b34801561009757600080fd5b506100b260048036038101906100ad9190610a2a565b61024a565b6040516100bf9190610a72565b60405180910390f35b3480156100d457600080fd5b506100ef60048036038101906100ea9190610a2a565b610297565b60405161010196959493929190610b35565b60405180910390f35b34801561011657600080fd5b50610131600480360381019061012c9190610c09565b6103e3565b60405161013e9190610a72565b60405180910390f35b34801561015357600080fd5b5061016e60048036038101906101699190610a2a565b610585565b60405161017b9190610a72565b60405180910390f35b34801561019057600080fd5b5061019961064e565b6040516101a69190610cb0565b60405180910390f35b6101c960048036038101906101c49190610a2a565b610654565b6040516101d69190610a72565b60405180910390f35b3480156101eb57600080fd5b506101f46106d2565b005b34801561020257600080fd5b5061020b61075a565b6040516102189190610d0c565b60405180910390f35b34801561022d57600080fd5b5061024860048036038101906102439190610d53565b610783565b005b6000816002548110610291576040517f08c379a000000000000000000000000000000000000000000000000000000000815260040161028890610df2565b60405180910390fd5b50919050565b60016020528060005260406000206000915090508060000154908060010180546102c090610e41565b80601f01602080910402602001604051908101604052809291908181526020018280546102ec90610e41565b80156103395780601f1061030e57610100808354040283529160200191610339565b820191906000526020600020905b81548152906001019060200180831161031c57829003601f168201915b50505050509080600201805461034e90610e41565b80601f016020809104026020016040519081016040528092919081815260200182805461037a90610e41565b80156103c75780601f1061039c576101008083540402835291602001916103c7565b820191906000526020600020905b8154815290600101906020018083116103aa57829003601f168201915b5050505050908060030154908060040154908060050154905086565b6000868660008282905014156103f857600080fd5b8686600082829050141561040b57600080fd5b866000811161041957600080fd5b866000811161042757600080fd5b6040518060c0016040528060025481526020018e8e8080601f016020809104026020016040519081016040528093929190818152602001838380828437600081840152601f19601f8201169050808301925050505050505081526020018c8c8080601f016020809104026020016040519081016040528093929190818152602001838380828437600081840152601f19601f8201169050808301925050505050505081526020018a8152602001600081526020018981525060016000600254815260200190815260200160002060008201518160000155602082015181600101908051906020019061051a929190610947565b506040820151816002019080519060200190610537929190610947565b50606082015181600301556080820151816004015560a082015181600501559050506002600081548092919061056c90610ea2565b9190505550600196505050505050509695505050505050565b600061058f61087b565b73ffffffffffffffffffffffffffffffffffffffff166105ad61075a565b73ffffffffffffffffffffffffffffffffffffffff1614610603576040517f08c379a00000000000000000000000000000000000000000000000000000000081526004016105fa90610f37565b60405180910390fd5b816002548110610648576040517f08c379a000000000000000000000000000000000000000000000000000000000815260040161063f90610df2565b60405180910390fd5b50919050565b60025481565b600081600254811061069b576040517f08c379a000000000000000000000000000000000000000000000000000000000815260040161069290610df2565b60405180910390fd5b346001600085815260200190815260200160002060040160008282546106c19190610f57565b925050819055506001915050919050565b6106da61087b565b73ffffffffffffffffffffffffffffffffffffffff166106f861075a565b73ffffffffffffffffffffffffffffffffffffffff161461074e576040517f08c379a000000000000000000000000000000000000000000000000000000000815260040161074590610f37565b60405180910390fd5b6107586000610883565b565b60008060009054906101000a900473ffffffffffffffffffffffffffffffffffffffff16905090565b61078b61087b565b73ffffffffffffffffffffffffffffffffffffffff166107a961075a565b73ffffffffffffffffffffffffffffffffffffffff16146107ff576040517f08c379a00000000000000000000000000000000000000000000000000000000081526004016107f690610f37565b60405180910390fd5b600073ffffffffffffffffffffffffffffffffffffffff168173ffffffffffffffffffffffffffffffffffffffff16141561086f576040517f08c379a00000000000000000000000000000000000000000000000000000000081526004016108669061101f565b60405180910390fd5b61087881610883565b50565b600033905090565b60008060009054906101000a900473ffffffffffffffffffffffffffffffffffffffff169050816000806101000a81548173ffffffffffffffffffffffffffffffffffffffff021916908373ffffffffffffffffffffffffffffffffffffffff1602179055508173ffffffffffffffffffffffffffffffffffffffff168173ffffffffffffffffffffffffffffffffffffffff167f8be0079c531659141344cd1fd0a4f28419497f9722a3daafe3b4186f6b6457e060405160405180910390a35050565b82805461095390610e41565b90600052602060002090601f01602090048101928261097557600085556109bc565b82601f1061098e57805160ff19168380011785556109bc565b828001600101855582156109bc579182015b828111156109bb5782518255916020019190600101906109a0565b5b5090506109c991906109cd565b5090565b5b808211156109e65760008160009055506001016109ce565b5090565b600080fd5b600080fd5b6000819050919050565b610a07816109f4565b8114610a1257600080fd5b50565b600081359050610a24816109fe565b92915050565b600060208284031215610a4057610a3f6109ea565b5b6000610a4e84828501610a15565b91505092915050565b60008115159050919050565b610a6c81610a57565b82525050565b6000602082019050610a876000830184610a63565b92915050565b610a96816109f4565b82525050565b600081519050919050565b600082825260208201905092915050565b60005b83811015610ad6578082015181840152602081019050610abb565b83811115610ae5576000848401525b50505050565b6000601f19601f8301169050919050565b6000610b0782610a9c565b610b118185610aa7565b9350610b21818560208601610ab8565b610b2a81610aeb565b840191505092915050565b600060c082019050610b4a6000830189610a8d565b8181036020830152610b5c8188610afc565b90508181036040830152610b708187610afc565b9050610b7f6060830186610a8d565b610b8c6080830185610a8d565b610b9960a0830184610a8d565b979650505050505050565b600080fd5b600080fd5b600080fd5b60008083601f840112610bc957610bc8610ba4565b5b8235905067ffffffffffffffff811115610be657610be5610ba9565b5b602083019150836001820283011115610c0257610c01610bae565b5b9250929050565b60008060008060008060808789031215610c2657610c256109ea565b5b600087013567ffffffffffffffff811115610c4457610c436109ef565b5b610c5089828a01610bb3565b9650965050602087013567ffffffffffffffff811115610c7357610c726109ef565b5b610c7f89828a01610bb3565b94509450506040610c9289828a01610a15565b9250506060610ca389828a01610a15565b9150509295509295509295565b6000602082019050610cc56000830184610a8d565b92915050565b600073ffffffffffffffffffffffffffffffffffffffff82169050919050565b6000610cf682610ccb565b9050919050565b610d0681610ceb565b82525050565b6000602082019050610d216000830184610cfd565b92915050565b610d3081610ceb565b8114610d3b57600080fd5b50565b600081359050610d4d81610d27565b92915050565b600060208284031215610d6957610d686109ea565b5b6000610d7784828501610d3e565b91505092915050565b7f54686520737570706c6965642070726f6a65637420686173206e6f742062656560008201527f6e20637265617465640000000000000000000000000000000000000000000000602082015250565b6000610ddc602983610aa7565b9150610de782610d80565b604082019050919050565b60006020820190508181036000830152610e0b81610dcf565b9050919050565b7f4e487b7100000000000000000000000000000000000000000000000000000000600052602260045260246000fd5b60006002820490506001821680610e5957607f821691505b60208210811415610e6d57610e6c610e12565b5b50919050565b7f4e487b7100000000000000000000000000000000000000000000000000000000600052601160045260246000fd5b6000610ead826109f4565b91507fffffffffffffffffffffffffffffffffffffffffffffffffffffffffffffffff821415610ee057610edf610e73565b5b600182019050919050565b7f4f776e61626c653a2063616c6c6572206973206e6f7420746865206f776e6572600082015250565b6000610f21602083610aa7565b9150610f2c82610eeb565b602082019050919050565b60006020820190508181036000830152610f5081610f14565b9050919050565b6000610f62826109f4565b9150610f6d836109f4565b9250827fffffffffffffffffffffffffffffffffffffffffffffffffffffffffffffffff03821115610fa257610fa1610e73565b5b828201905092915050565b7f4f776e61626c653a206e6577206f776e657220697320746865207a65726f206160008201527f6464726573730000000000000000000000000000000000000000000000000000602082015250565b6000611009602683610aa7565b915061101482610fad565b604082019050919050565b6000602082019050818103600083015261103881610ffc565b905091905056fea2646970667358221220d26fe1c75886e0d1571bfe9573839e5f7732ed15137886e316c507bd3a2a49ac64736f6c63430008090033",
  "immutableReferences": {},
  "source": "// SPDX-License-Identifier: MIT\r\npragma solidity 0.8.9;\r\n\r\nimport \"@openzeppelin/contracts/access/Ownable.sol\";\r\n\r\n/// @title Contract to propose and fund projects of any kind\r\n/// @author Craig Banach https://github.com/CraigBanach\r\n/// @notice Allows any Ethereum address to propose or fund a project\r\n/// @dev Contract is current a WIP and not all desired functionality is implemented\r\ncontract CouncilProjectFunding is Ownable{\r\n  \r\n  /// @notice A mapping of the proposed projects\r\n  mapping(uint => Project) public projects;\r\n\r\n  /// @notice The current number of proposed projects\r\n  uint public projectCount;\r\n\r\n  struct Project {\r\n    uint id;\r\n    string name;\r\n    string description;\r\n    uint fundingNeeded;\r\n    uint currentFundLevel;\r\n    uint thresholdBlock;\r\n  }\r\n\r\n  modifier stringNotEmpty(string calldata str) {\r\n    require(bytes(str).length != 0);\r\n    _;\r\n  }\r\n\r\n  modifier uintGreaterThanZero(uint num) {\r\n    require(num > 0);\r\n    _;\r\n  }\r\n\r\n  modifier projectExists(uint id) {\r\n    require(id < projectCount, \"The supplied project has not been created\");\r\n    _;\r\n  }\r\n\r\n  /// @notice Propose a new project you wish to accomplish\r\n  /// @dev Currently the project address is not captured, this will be done in future development\r\n  /// @param name The name for the project\r\n  /// @param description A basic description of what the project is attempting to accomplish\r\n  /// @param fundingNeeded The amout of Eth requried for the project to be started\r\n  /// @param thresholdBlock The final block at which the project funds can be deployed. After this block, the project is considered cancelled and users will be able to withdraw their funds\r\n  /// @param success a boolean indicating if the function ran successfully\r\n  function addProject(\r\n    string calldata name,\r\n    string calldata description,\r\n    uint fundingNeeded,\r\n    uint thresholdBlock\r\n  ) public \r\n    stringNotEmpty(name) \r\n    stringNotEmpty(description) \r\n    uintGreaterThanZero(fundingNeeded)\r\n    uintGreaterThanZero(thresholdBlock) \r\n    returns (bool success) \r\n  {\r\n    projects[projectCount] = Project(\r\n      projectCount,\r\n      name,\r\n      description,\r\n      fundingNeeded,\r\n      0,\r\n      thresholdBlock\r\n    );\r\n    projectCount++;\r\n    return true;\r\n  }\r\n\r\n  /// @notice Add funds to a proposed project\r\n  /// @dev Currently this does not check if the project is cancelled or completed and does not track which addresses funded the contract\r\n  /// @param projectId The id of the project you wish to fund\r\n  /// @param success a boolean indicating if the function ran successfully\r\n  function fundProject(uint projectId) public payable \r\n  projectExists(projectId)\r\n  returns (bool success) {\r\n    projects[projectId].currentFundLevel += msg.value;\r\n\r\n    return true;\r\n  }\r\n\r\n  /// @notice Deploys the project funds to the project address if successfully funded and before the threshold block\r\n  function deployProjectFunds(uint projectId) public onlyOwner\r\n  projectExists(projectId)\r\n  returns (bool success) {\r\n    // TODO: Check if canDeployFunds()\r\n    // TODO: Send funds to project address\r\n  }\r\n\r\n  /// @notice Checks if the supplied project's funds can be deployed\r\n  /// @dev Should check if the funding threshold is reached and if the threshold block is not reached\r\n  function canDeployFunds(uint projectId) private returns (bool canDeploy) {\r\n    // TODO\r\n  }\r\n\r\n  /// @notice Allows a user to reclaim funds for cancelled projects\r\n  /// @dev Should check if the threshold block has been breached\r\n  function withdrawUnusedFunds(uint projectId) public\r\n  projectExists(projectId)\r\n  returns (bool success) {\r\n    // TODO\r\n  }\r\n}\r\n",
  "sourcePath": "D:\\dev\\blockchain-developer-bootcamp-final-project\\contracts\\CouncilProjectFunding.sol",
  "compiler": {
    "name": "solc",
    "version": "0.8.9+commit.e5eed63a.Emscripten.clang"
  },
  "schemaVersion": "3.4.3",
  "updatedAt": "2021-11-27T14:17:51.345Z",
  "devdoc": {
    "author": "Craig Banach https://github.com/CraigBanach",
    "details": "Contract is current a WIP and not all desired functionality is implemented",
    "kind": "dev",
    "methods": {
      "addProject(string,string,uint256,uint256)": {
        "details": "Currently the project address is not captured, this will be done in future development",
        "params": {
          "description": "A basic description of what the project is attempting to accomplish",
          "fundingNeeded": "The amout of Eth requried for the project to be started",
          "name": "The name for the project",
          "success": "a boolean indicating if the function ran successfully",
          "thresholdBlock": "The final block at which the project funds can be deployed. After this block, the project is considered cancelled and users will be able to withdraw their funds"
        }
      },
      "fundProject(uint256)": {
        "details": "Currently this does not check if the project is cancelled or completed and does not track which addresses funded the contract",
        "params": {
          "projectId": "The id of the project you wish to fund",
          "success": "a boolean indicating if the function ran successfully"
        }
      },
      "owner()": {
        "details": "Returns the address of the current owner."
      },
      "renounceOwnership()": {
        "details": "Leaves the contract without owner. It will not be possible to call `onlyOwner` functions anymore. Can only be called by the current owner. NOTE: Renouncing ownership will leave the contract without an owner, thereby removing any functionality that is only available to the owner."
      },
      "transferOwnership(address)": {
        "details": "Transfers ownership of the contract to a new account (`newOwner`). Can only be called by the current owner."
      },
      "withdrawUnusedFunds(uint256)": {
        "details": "Should check if the threshold block has been breached"
      }
    },
    "title": "Contract to propose and fund projects of any kind",
    "version": 1
  },
  "userdoc": {
    "kind": "user",
    "methods": {
      "addProject(string,string,uint256,uint256)": {
        "notice": "Propose a new project you wish to accomplish"
      },
      "deployProjectFunds(uint256)": {
        "notice": "Deploys the project funds to the project address if successfully funded and before the threshold block"
      },
      "fundProject(uint256)": {
        "notice": "Add funds to a proposed project"
      },
      "projectCount()": {
        "notice": "The current number of proposed projects"
      },
      "projects(uint256)": {
        "notice": "A mapping of the proposed projects"
      },
      "withdrawUnusedFunds(uint256)": {
        "notice": "Allows a user to reclaim funds for cancelled projects"
      }
    },
    "notice": "Allows any Ethereum address to propose or fund a project",
    "version": 1
  }
}